:020000020000FC
:040000000C9430002C
:04003C000C94C80157
:040050000C94790390
:10005C000C94BD02D5E001E20EBF0FEF0DBF0027DF
:10006C0004BD02E005BD01E000936E000FEF00BB84
:10007C0001B9002701BB02B90FEF04B9002705B97C
:10008C0000270AB90FEF0BB90FEF07B903E000EF28
:10009C0000930A010FEF00930B019927002700939F
:1000AC000E0208E33DD34CD365D308E339D348D3D0
:1000BC0058D308E335D344D308E332D341D308E013
:1000CC002FD33ED301E02CD33BD306E029D338D336
:1000DC000EE026D335D3B2E0A0E1A0936002B0933A
:1000EC006102DF93CF93BF93AF9304E5D2E0C0E6F8
:1000FC00A991B8810D9300E00D932197A993B88332
:10010C00AF91BF91CF91DF91DF93CF93BF93AF931B
:10011C0008E4D2E0C0E6A991B8810D9300E00D93FC
:10012C002197A993B883AF91BF91CF91DF91DF93C2
:10013C00CF93BF93AF9304E5D2E0C0E6A991B88109
:10014C000D9300E00D932197A993B883AF91BF91C4
:10015C00CF91DF91DF93CF93BF93AF9308E4D2E0BD
:10016C00C0E6A991B8810D9300E00D932197A99356
:10017C00B883AF91BF91CF91DF91DF93CF93BF93B2
:10018C00AF9304E5D2E0C0E6A991B8810D9300E0ED
:10019C000D932197A993B883AF91BF91CF91DF9124
:1001AC00DF93CF93BF93AF9308E4D2E0C0E6A9915D
:1001BC00B8810D9300E00D932197A993B883AF916B
:1001CC00BF91CF91DF91DF93CF93BF93AF9304E5B2
:1001DC00D2E0C0E6A991B8810D9300E00D93219770
:1001EC00A993B883AF91BF91CF91DF91DF93CF9358
:1001FC00BF93AF9308E4D2E0C0E6A991B8810D9308
:10020C0000E00D932197A993B883AF91BF91CF9143
:10021C00DF91DF93CF93BF93AF9304E5D2E0C0E6B9
:10022C00A991B8810D9300E00D932197A993B88300
:10023C00AF91BF91CF91DF91DF93CF93BF93AF93EA
:10024C0000ECD2E0C0E6A991B8810D9300E00D93CB
:10025C002197A993B883AF91BF91CF91DF91DF9391
:10026C00CF93BF93AF9308E4D2E0C0E6A991B881D5
:10027C000D9300E00D932197A993B883AF91BF9193
:10028C00CF91DF91DF93CF93BF93AF9304E5D2E08F
:10029C00C0E6A991B8810D9300E00D932197A99325
:1002AC00B883AF91BF91CF91DF91DF93CF93BF9381
:1002BC00AF9308E4D2E0C0E6A991B8810D9300E0B9
:1002CC000D932197A993B883AF91BF91CF91DF91F3
:1002DC00DF93CF93BF93AF9304E5D2E0C0E6A9912F
:1002EC00B8810D9300E00D932197A993B883AF913A
:1002FC00BF91CF91DF91DF93CF93BF93AF9308E47E
:10030C00D2E0C0E6A991B8810D9300E00D9321973E
:10031C00A993B883AF91BF91CF91DF91DF93CF9326
:10032C00BF93AF9304E5D2E0C0E6A991B8810D93D9
:10033C0000E00D932197A993B883AF91BF91CF9112
:10034C00DF910091110208B900270093B00002E080
:10035C000093B10001E0009370000027009380002F
:10036C0002E00093810001E000936F0000270093EE
:10037C00620208E0009363027894F2E0E0E0CC279C
:10038C00BB27FFCF9F9380910802909109020196A1
:10039C0000E08431900709F0E4C0DF93C8E0D2E0BC
:1003AC00002709930883DF9180910A0283950091BD
:1003BC000E02003009F01DC0DF93CF93BF93AF93B3
:1003CC00FF93EF93C0E1D2E0B2E0A0E6ED91FC9197
:1003DC00CE17DF07EF91FF91AF91BF91CF91DF91D6
:1003EC0009F46EC020911102223019F004E0009340
:1003FC000E0220911102223031F1003009F460C05C
:10040C00043039F41091100211BB2130C1F0179A4D
:10041C0016C0033011F4169A12C01698013079F4F4
:10042C00039500930E0212E010931102112710BBDA
:10043C0011BB159A213009F443C0179841C00A9595
:10044C0000930E023DC0023091F1013091F11FB1C9
:10045C00169817FD32C015981FEF10BBDF93CF9382
:10046C00BF93AF93FF93EF93C0E1D2E0B2E0A0E66D
:10047C00ED91FC91F8B92296CE17DF0740F009F008
:10048C000FC02297C0936002D093610209C0CE17AF
:10049C00DF0731F0A991B8812397A993B993EBCFDA
:1004AC00EF91FF91AF91BF91CF91DF9109C0169A57
:1004BC0000C00A9500930E0203C002E000930E02E6
:1004CC0099B19F3F09F43FC09E3FF1F09D3F09F069
:1004DC0046C000910C02000F016000930C020091C9
:1004EC000B02000F00930B020E3F09F038C00D2FCA
:1004FC000C71003019F0083009F002C0DC6101C049
:10050C00DC6901E002B92BC000910C02000F0093D2
:10051C000C0290910B02990F916090930B020E3F7D
:10052C00F1F40D2F0C710C3169F4D37E0D2F007882
:10053C00003011F4D86002C0DF77D46002B10E7FB6
:10054C0002B90DC00CC000910B02000F01600093AA
:10055C000B0200910C02000F016000930C029F91A2
:10056C00189580930802909309029F9118950D2F6E
:10057C000C710C3109F418951FEE092F003021F085
:10058C00110F11600A95FACF943019F4DF7B99277B
:10059C00189510930B010000000000001091090148
:1005AC001F701F3051F021E03327343031F0412FD0
:1005BC00422329F03395220FF8CF939518951D2FD0
:1005CC001074103009F01895D064933069F1333001
:1005DC0009F448C00D2F0C71043009F402C0083125
:1005EC0011F5132F110F130F190F1F5F0D2F08711A
:1005FC000831C9F4D37ED4601430ACF4DC7FD12B39
:10060C00002700936202113031F0123041F00FE1FB
:10061C000093630267C008E00093630263C000E1CB
:10062C00009363025FC04BC00D2F0C71083111F4A5
:10063C00D37ED460303051F0313071F00D2F0C710D
:10064C00003051F4323049F0333059F00D2F0C7129
:10065C00043011F4D37ED86145C0C634ECF7C25EC9
:10066C0041C040C00D2F0C71083111F4D37ED46001
:10067C0000E0903019F0913091F089F40D2F0C714D
:10068C00003039F0003151F00024C030B00509F0D1
:10069C0003C0B3360CF4B395D37ED06023C00D2FBA
:1006AC000C71043011F0003029F0CC27BB27D37E1D
:1006BC00D46018C0D37ED860002705B913C0C130F0
:1006CC0014F4C10F0FC0CA302CF42AE0C29FC12F02
:1006DC00C00DC10FB1300CF4B10F2AE0B29FB12F95
:1006EC00B00DB10F18950D2F0C71003019F00027BB
:1006FC0005B9189500916202003011F42FEF25B95D
:10070C000395109163021F31011711F4112715B9CC
:10071C000F3119F40FEF05B90027009362021895F9
:10072C0001BB1FD0169A1DD016981BD0089501BB83
:10073C00179A17D0169A15D0169813D017980895A3
:10074C000F93002700BB01BB159A0BD0169A09D04A
:10075C000FB1169807FDF9CF15980FEF00BB0F914D
:10076C0008958F939F939FE08CE90197F1F79F91E8
:10077C008F910895F6DFF5DFF4DFF3DFF2DF0895F4
:00000001FF
