:020000020000FC
:040000000C9430002C
:04003C000C945200CE
:10005C000C94A00001E20EBF0FEF0DBF002704BDF2
:10006C0002E005BD01E000936E000FEF00BB01B98B
:10007C00002701BB02B900270AB90FEF0BB90FEF2C
:10008C0007B900270BB900270093B00002E00093DA
:10009C00B10001E07894FFCF8091080290910902A1
:1000AC00019600E08436900709F03FC0C8E0D2E02A
:1000BC0000270993088380910A02839599B19F3F89
:1000CC0009F428C09E3F19F09D3F81F02DC000918E
:1000DC000C02000F016000930C0200910B02000F48
:1000EC0000930B020E3F09F01FC0DC6100910C0263
:1000FC00000F00930C0290910B02990F916090935A
:10010C000B020E3F89F40D2F0C610C3111F4D37ED0
:10011C00D8600AC0000F016000930B0200910C0222
:10012C00000F016000930C021895809308029093C5
:06013C0009021895189558
:00000001FF
