:020000020000FC
:040000000C9430002C
:04003C000C945E00C2
:10005C000C94BA0001E20EBF0FEF0DBF002704BDD8
:10006C0002E005BD01E000936E000FEF00BB01B98B
:10007C00002701BB02B900270AB90FEF0BB90FEF2C
:10008C0007B903E008B900270093B00002E0009321
:10009C00B10001E00093700000EF00930A010FEF34
:1000AC0000930B0199277894D5E0F2E0E0E0FFCFC4
:1000BC009F938091080290910902019600E084368A
:1000CC00900709F04BC0DF93C8E0D2E000270993FA
:1000DC000883DF9180910A02839599B19F3F09F4BF
:1000EC002FC09E3FA9F09D3F09F036C000910C0235
:1000FC00000F016000930C0200910B02000F0093A3
:10010C000B020E3F09F028C0DC6101E002B924C0EB
:10011C0000910C02000F00930C0290910B02990FAE
:10012C00916090930B020E3FB9F40D2F0C710C31B2
:10013C0031F4D37ED86002B10E7F02B90DC00CC071
:10014C0000910B02000F016000930B0200910C0256
:10015C00000F016000930C029F9118958093080288
:10016C00909309029F9118950D2F0C710C3109F485
:10017C0018951FEE092F003021F0110F11600A9510
:10018C00FACF943019F4DF7B9927189510930B0153
:10019C0000000000109109011F701F3051F021E088
:1001AC003327343031F0412F422329F03395220F7D
:1001BC00F8CF939518951D2F1074103009F01895E1
:1001CC00D064933099F03330F1F0132F110F130FDB
:1001DC00190F1F5F18B90D2F0078003031F0DF7741
:1001EC0014301CF4DC7FD12BD8B90EC0303031F078
:1001FC00313031F0323029F0333021F0D06804C086
:0A020C0003C002C001C000C0189535
:00000001FF
