:020000020000FC
:040000000C94340028
:04003C000C94B1016E
:040050000C943B07CA
:10005C000C94A5022D2F7C60607C2F2DD5E001E245
:10006C000EBF0FEF0DBF002704BD02E005BD01E080
:10007C0000936E000FEF00BB01B9002701BB02B962
:10008C000FEF04B90FEF05B900270AB90FEF0BB941
:10009C000FEF07B903E008B900EF00930A010FEF67
:1000AC0000930B01992700270093050208E30E9497
:1000BC00160A0E94260A0E94400A08E30E94160AA9
:1000CC000E94260A0E94370A08E30E94160A0E9420
:1000DC00260A08E30E94160A0E94260A08E00E94DB
:1000EC00160A0E94260A01E00E94160A0E94260A9D
:1000FC0006E00E94160A0E94260A0EE00E94160ACA
:10010C000E94260AB2E0A6E0A0938E15B0938F153C
:10011C00AA27BB2700270093B00002E00093B10090
:10012C0001E00093700000270093800002E0009330
:10013C00810001E000936F0000270093901508E008
:10014C00009391157894002700939215F0E0E0E667
:10015C00DF93CF93BF93AF9301E0D5E1CEE8A991A4
:10016C00B8810D9301E00D932197A993B883AF91BA
:10017C00BF91CF91DF91DF93CF93BF93AF9300E803
:10018C00D5E1CEE8A991B8810D9301E00D932197AB
:10019C00A993B883AF91BF91CF91DF912F933F93E8
:1001AC002B2F33272A3018F033952A50FBCF305D94
:1001BC00DF93CF93BF93AF93032FD5E1CEE8A991F3
:1001CC00B8810D9300E00D932197A993B883AF915B
:1001DC00BF91CF91DF913327205DDF93CF93BF93F6
:1001EC00AF93022FD5E1CEE8A991B8810D9300E031
:1001FC000D932197A993B883AF91BF91CF91DF91C4
:10020C0022273F912F91DF93CF93BF93AF930AE3B4
:10021C00D5E1CEE8A991B8810D9300E00D9321971B
:10022C00A993B883AF91BF91CF91DF912F933F9357
:10023C002A2F33272A3018F033952A50FBCF305D04
:10024C00DF93CF93BF93AF93032FD5E1CEE8A99162
:10025C00B8810D9300E00D932197A993B883AF91CA
:10026C00BF91CF91DF913327205DDF93CF93BF9365
:10027C00AF93022FD5E1CEE8A991B8810D9300E0A0
:10028C000D932197A993B883AF91BF91CF91DF9133
:10029C0022273F912F91DF93CF93BF93AF9300EC25
:1002AC00D5E1CEE8A991B8810D9301E00D9321978A
:1002BC00A993B883AF91BF91CF91DF91DF93CF9387
:1002CC00BF93AF9301E4D5E1CEE8A991B8810D932A
:1002DC0000E00D932197A993B883AF91BF91CF9173
:1002EC00DF91DF93CF93BF93AF9301E3D5E1CEE8DA
:1002FC00A991B8810D9300E00D932197A993B88330
:10030C00AF91BF91CF91DF91DF93CF93BF93AF9319
:10031C000FECD5E1CEE8A991B8810D9301E00D93D6
:10032C002197A993B883AF91BF91CF91DF91DF93C0
:10033C00CF93BF93AF9303E4D5E1CEE8A991B881F5
:10034C000D9300E00D932197A993B883AF91BF91C2
:10035C00CF91DF91FFCF9F9380910002909101028A
:10036C00019600E08431900709F0E3C0DF93C0E010
:10037C00D2E0002709930883DF91809102028395D4
:10038C0000910502003009F01DC0DF93CF93BF939D
:10039C00AF93FF93EF93C6E0D2E0B5E1AEE8ED91F9
:1003AC00FC91CE17DF07EF91FF91AF91BF91CF91E9
:1003BC00DF9109F469C020910702223051F104E069
:1003CC000093050220910702223019F1043039F410
:1003DC001091060211BB2130C1F0179A16C00330E0
:1003EC0011F4169A12C01698013079F40395009303
:1003FC00050212E010930702112710BB11BB159ACE
:10040C00213009F441C017983FC00A9500930502AA
:10041C003BC0023089F1013081F11FB1169817FDF4
:10042C0030C015981FEF10BBDF93CF93BF93AF93E2
:10043C00FF93EF93C6E0D2E0B5E1AEE8ED91FC910D
:10044C002296CE17DF0740F009F00FC02297C09319
:10045C008E15D0938F1509C0CE17DF0731F0A991F7
:10046C00B8812397A993B993EBCFEF91FF91AF91FB
:10047C00BF91CF91DF9108C0169A0A95009305029F
:10048C0003C002E00093050299B19F3F09F443C0F9
:10049C009E3FF9F09D3F09F04AC000910302000F06
:1004AC0001600093030200910402000F0093040208
:1004BC000E3F09F03CC00D2F0C71003019F00830C4
:1004CC0009F002C0DC6101C0DC6901E002B99F9156
:1004DC0053C200910302000F009303029091040297
:1004EC00990F9160909304020E3F09F57F937D2F35
:1004FC007C717C317F9171F4D37E0D2F00780030AC
:10050C0011F4D86002C0D37ED46002B10E7F02B960
:10051C009F9132C20CC000910302000F0160009346
:10052C00030200910402000F0160009304029F91EA
:10053C00189580930002909301029F9118957F93D8
:10054C007D2F7C717C317F9109F001C018951FEED5
:10055C00092F003021F0110F11600A95FACF943059
:10056C0019F4DF7B9927189510930B0100000000FC
:10057C000000109109011F701F3051F021E033274A
:10058C00343031F0412F422329F03395220FF8CF2C
:10059C00939518951D2F1074103009F01895D06490
:1005AC009330C9F1333009F47AC07F937D2F7C717D
:1005BC0074307F9109F406C07F937D2F7C71783164
:1005CC007F9141F5132F110F130F190F1F5F7F939D
:1005DC007D2F7C7178317F91E1F4D37ED46014301F
:1005EC00CCF4DC7FD12B113041F0123061F00FE1F3
:1005FC00009391150FEF08B9BFC108E00093911556
:10060C0003E008B9B9C100E1009391150FE008B9F6
:10061C00B3C198C1FEC37F937D2F7C7178317F91DC
:10062C0011F4D37ED4607F937D2F7C7178307F91D1
:10063C0009F4EFC37F937D2F7C7170317F9109F4A6
:10064C00E8C3303061F0313099F07F937D2F7C71AD
:10065C0070307F9169F4323061F03330A9F07F93C0
:10066C007D2F7C7174307F9119F4D37ED86184C155
:10067C00D0C3AE3138F0B33619F0AE51B3957CC15E
:10068C00A3E67AC1A25E78C1AE312CF4B03029F069
:10069C00BA95A25E71C1AE516FC1A0E00BC57F933C
:1006AC007D2F7C7178317F9111F4D37ED46000E082
:1006BC00903071F1913009F049F47F937D2F7C716A
:1006CC0074307F9109F0A5C311273CC17F937D2F16
:1006DC007C7174307F9131F07F937D2F7C71703001
:1006EC007F9189F0AA27BB277F937D2F7C7178306F
:1006FC007F9131F474E67E1B705AE72F70E2D72796
:10070C00D37ED46039C1D37ED860002705B934C1FB
:10071C007F937D2F7C7170307F9161F07F937D2F63
:10072C007C7170317F9129F00024A030B00511F05C
:10073C0006C06FC3B33614F4B39501C0A3E67F9320
:10074C007D2F7C7174307F9131F4772770939015E5
:10075C007EE470939215D37ED060DF93CF93BF93DA
:10076C00AF9301E0D5E1CEE8A991B8810D9301E0FA
:10077C000D932197A993B883AF91BF91CF91DF913E
:10078C00DF93CF93BF93AF930FECD5E1CEE8A99154
:10079C00B8810D9301E00D932197A993B883AF9184
:1007AC00BF91CF91DF91DF93CF93BF93AF9303E4CE
:1007BC00D5E1CEE8A991B8810D9300E00D93219776
:1007CC00A993B883AF91BF91CF91DF91DF93CF9372
:1007DC00BF93AF9300E8D5E1CEE8A991B8810D9312
:1007EC0001E00D932197A993B883AF91BF91CF915D
:1007FC00DF912F933F932B2F33272A3018F033950B
:10080C002A50FBCF305DDF93CF93BF93AF93032F71
:10081C00D5E1CEE8A991B8810D9300E00D93219715
:10082C00A993B883AF91BF91CF91DF913327205D0E
:10083C00DF93CF93BF93AF93022FD5E1CEE8A9916D
:10084C00B8810D9300E00D932197A993B883AF91D4
:10085C00BF91CF91DF9122273F912F91DF93CF93BF
:10086C00BF93AF930AE3D5E1CEE8A991B8810D937C
:10087C0000E00D932197A993B883AF91BF91CF91CD
:10088C00DF912F933F932A2F33272A3018F033957B
:10089C002A50FBCF305DDF93CF93BF93AF93032FE1
:1008AC00D5E1CEE8A991B8810D9300E00D93219785
:1008BC00A993B883AF91BF91CF91DF913327205D7E
:1008CC00DF93CF93BF93AF93022FD5E1CEE8A991DD
:1008DC00B8810D9300E00D932197A993B883AF9144
:1008EC00BF91CF91DF9122273F912F91D5FF349665
:1008FC006491DF93CF93BF93AF930FE8D5E1CEE82C
:10090C00A991B8810D9301E00D932197A993B88318
:10091C00AF91BF91CF91DF91DF93CF93BF93AF9303
:10092C00062FD5E1CEE8A991B8810D9300E00D9387
:10093C002197A993B883AF91BF91CF91DF91D5FF48
:10094C00349767C27AE0A13014F4A10F15C0AA3015
:10095C0034F4B13024F4A79FA02DA10F0DC0BA30F0
:10096C0008F057C2B79FB02DAA3018F0B395AA5013
:10097C00FBCFA79FA02DA10FDF93CF93BF93AF9376
:10098C0001E0D5E1CEE8A991B8810D9301E00D937A
:10099C002197A993B883AF91BF91CF91DF91DF934A
:1009AC00CF93BF93AF9300E8D5E1CEE8A991B8817E
:1009BC000D9301E00D932197A993B883AF91BF914B
:1009CC00CF91DF917F937D2F7C7178317F9109F0EE
:1009DC001EC1DF93CF93BF93AF9303E5D5E1CEE870
:1009EC00A991B8810D9300E00D932197A993B88339
:1009FC00AF91BF91CF91DF91DF93CF93BF93AF9323
:100A0C0005E6D5E1CEE8A991B8810D9300E00D93F0
:100A1C002197A993B883AF91BF91CF91DF91DF93C9
:100A2C00CF93BF93AF9304E7D5E1CEE8A991B881FA
:100A3C000D9300E00D932197A993B883AF91BF91CB
:100A4C00CF91DF91DF93CF93BF93AF9300E2D5E1CA
:100A5C00CEE8A991B8810D9300E00D932197A9934D
:100A6C00B883AF91BF91CF91DF91DF93CF93BF93B9
:100A7C00AF9300E5D5E1CEE8A991B8810D9300E0E4
:100A8C000D932197A993B883AF91BF91CF91DF912B
:100A9C00DF93CF93BF93AF930FE6D5E1CEE8A99147
:100AAC00B8810D9300E00D932197A993B883AF9172
:100ABC00BF91CF91DF91DF93CF93BF93AF9307E7B4
:100ACC00D5E1CEE8A991B8810D9300E00D93219763
:100ADC00A993B883AF91BF91CF91DF91DF93CF935F
:100AEC00BF93AF9305E6D5E1CEE8A991B8810D93FC
:100AFC0000E00D932197A993B883AF91BF91CF914B
:100B0C00DF91DF93CF93BF93AF9302E7D5E1CEE8AC
:100B1C00A991B8810D9300E00D932197A993B88307
:100B2C00AF91BF91CF91DF91DF93CF93BF93AF93F1
:100B3C0000E2D5E1CEE8A991B8810D9300E00D93C8
:100B4C002197A993B883AF91BF91CF91DF91DF9398
:100B5C00CF93BF93AF9301E3D5E1CEE8A991B881D0
:100B6C000D9300E00D932197A993B883AF91BF919A
:100B7C00CF91DF91DF93CF93BF93AF930FE2D5E18A
:100B8C00CEE8A991B8810D9300E00D932197A9931C
:100B9C00B883AF91BF91CF91DF91DF93CF93BF9388
:100BAC00AF9302E3D5E1CEE8A991B8810D9300E0B3
:100BBC000D932197A993B883AF91BF91CF91DF91FA
:100BCC00DF93CF93BF93AF930FE2D5E1CEE8A9911A
:100BDC00B8810D9300E00D932197A993B883AF9141
:100BEC00BF91CF91DF91DF93CF93BF93AF9303E38B
:100BFC00D5E1CEE8A991B8810D9300E00D93219732
:100C0C00A993B883AF91BF91CF91DF917DC02F9302
:100C1C003F932B2F33272A3018F033952A50FBCFD4
:100C2C00305DDF93CF93BF93AF93032FD5E1CEE825
:100C3C00A991B8810D9300E00D932197A993B883E6
:100C4C00AF91BF91CF91DF913327205DDF93CF938D
:100C5C00BF93AF93022FD5E1CEE8A991B8810D9344
:100C6C0000E00D932197A993B883AF91BF91CF91D9
:100C7C00DF9122273F912F91DF93CF93BF93AF93B7
:100C8C000AE3D5E1CEE8A991B8810D9300E00D936C
:100C9C002197A993B883AF91BF91CF91DF912F93F7
:100CAC003F932A2F33272A3018F033952A50FBCF45
:100CBC00305DDF93CF93BF93AF93032FD5E1CEE895
:100CCC00A991B8810D9300E00D932197A993B88356
:100CDC00AF91BF91CF91DF913327205DDF93CF93FD
:100CEC00BF93AF93022FD5E1CEE8A991B8810D93B4
:100CFC0000E00D932197A993B883AF91BF91CF9149
:100D0C00DF9122273F912F917F937D2F7C7174303F
:100D1C007F9109F406C07F937D2F7C7178317F9190
:100D2C00C9F5DF93CF93BF93AF9300ECD5E1CEE839
:100D3C00A991B8810D9301E00D932197A993B883E4
:100D4C00AF91BF91CF91DF91DF93CF93BF93AF93CF
:100D5C0001E4D5E1CEE8A991B8810D9300E00D93A3
:100D6C002197A993B883AF91BF91CF91DF91DF9376
:100D7C00CF93BF93AF9301E3D5E1CEE8A991B881AE
:100D8C000D9300E00D932197A993B883AF91BF9178
:100D9C00CF91DF91DF93CF93BF93AF930FECD5E15E
:100DAC00CEE8A991B8810D9301E00D932197A993F9
:100DBC00B883AF91BF91CF91DF917F937D2F7C71E1
:100DCC007C317F9199F0DF93CF93BF93AF9303E482
:100DDC00D5E1CEE8A991B8810D9300E00D93219750
:100DEC00A993B883AF91BF91CF91DF91DF93CF934C
:100DFC00BF93AF930FE4D5E1CEE8A991B8810D93E1
:100E0C0000E00D932197A993B883AF91BF91CF9137
:100E1C00DF91D5FF34966491DF93CF93BF93AF935B
:100E2C000FE8D5E1CEE8A991B8810D9301E00D93BF
:100E3C002197A993B883AF91BF91CF91DF91DF93A5
:100E4C00CF93BF93AF93062FD5E1CEE8A991B8818C
:100E5C000D9300E00D932197A993B883AF91BF91A7
:100E6C00CF91DF91D5FF349718957F937D2F7C71AF
:100E7C0070307F9119F0662765B9189560919215BD
:100E8C006E3409F068C060E0E436F60711F4E0E671
:100E9C00F0E0D5FF349664913196DF93CF93BF93F6
:100EAC00AF930CE8D5E1CEE8A991B8810D9301E0A0
:100EBC000D932197A993B883AF91BF91CF91DF91F7
:100ECC002F933F932E2F33272A3018F033952A5027
:100EDC00FBCF305DDF93CF93BF93AF93032FD5E15F
:100EEC00CEE8A991B8810D9300E00D932197A993B9
:100EFC00B883AF91BF91CF91DF913327205DDF9302
:100F0C00CF93BF93AF93022FD5E1CEE8A991B881CF
:100F1C000D9300E00D932197A993B883AF91BF91E6
:100F2C00CF91DF9122273F912F91DF93CF93BF93E6
:100F3C00AF93062FD5E1CEE8A991B8810D9300E0CF
:100F4C000D932197A993B883AF91BF91CF91DF9166
:100F5C00D5FF349766276395609392156091901531
:100F6C00603009F092C07FEF75B9DF93CF93BF93D8
:100F7C00AF9300E8D5E1CEE8A991B8810D9301E0DB
:100F8C000D932197A993B883AF91BF91CF91DF9126
:100F9C002F933F932B2F33272A3018F033952A5059
:100FAC00FBCF305DDF93CF93BF93AF93032FD5E18E
:100FBC00CEE8A991B8810D9300E00D932197A993E8
:100FCC00B883AF91BF91CF91DF913327205DDF9331
:100FDC00CF93BF93AF93022FD5E1CEE8A991B881FF
:100FEC000D9300E00D932197A993B883AF91BF9116
:100FFC00CF91DF9122273F912F91DF93CF93BF9316
:10100C00AF930AE3D5E1CEE8A991B8810D9300E046
:10101C000D932197A993B883AF91BF91CF91DF9195
:10102C002F933F932A2F33272A3018F033952A50C9
:10103C00FBCF305DDF93CF93BF93AF93032FD5E1FD
:10104C00CEE8A991B8810D9300E00D932197A99357
:10105C00B883AF91BF91CF91DF913327205DDF93A0
:10106C00CF93BF93AF93022FD5E1CEE8A991B8816E
:10107C000D9300E00D932197A993B883AF91BF9185
:10108C00CF91DF9122273F912F916395109191156C
:10109C00611711F4112715B96E3181F46627A1304F
:1010AC0011F4B03039F0A03011F0AA950AC0BA95FD
:1010BC00ABE307C0AA95D37ED06104C060939015B2
:1010CC001895FCCFDF93CF93BF93AF9301E0D5E19D
:1010DC00CEE8A991B8810D9301E00D932197A993C6
:1010EC00B883AF91BF91CF91DF91DF93CF93BF9333
:1010FC00AF9300E8D5E1CEE8A991B8810D9301E05A
:10110C000D932197A993B883AF91BF91CF91DF91A4
:10111C00DF93CF93BF93AF9304E4D5E1CEE8A991CD
:10112C00B8810D9300E00D932197A993B883AF91EB
:10113C00BF91CF91DF91DF93CF93BF93AF930FE626
:10114C00D5E1CEE8A991B8810D9300E00D932197DC
:10115C00A993B883AF91BF91CF91DF91DF93CF93D8
:10116C00BF93AF930EE6D5E1CEE8A991B8810D936C
:10117C0000E00D932197A993B883AF91BF91CF91C4
:10118C00DF91DF93CF93BF93AF9305E6D5E1CEE824
:10119C00A991B8810D9300E00D932197A993B88381
:1011AC00AF91BF91CF91DF91DF93CF93BF93AF936B
:1011BC0000ECD5E1CEE8A991B8810D9301E00D9337
:1011CC002197A993B883AF91BF91CF91DF91DF9312
:1011DC00CF93BF93AF9302E5D5E1CEE8A991B88147
:1011EC000D9300E00D932197A993B883AF91BF9114
:1011FC00CF91DF91DF93CF93BF93AF9305E6D5E10A
:10120C00CEE8A991B8810D9300E00D932197A99395
:10121C00B883AF91BF91CF91DF91DF93CF93BF9301
:10122C00AF930DE6D5E1CEE8A991B8810D9300E01E
:10123C000D932197A993B883AF91BF91CF91DF9173
:10124C00DF93CF93BF93AF930FE6D5E1CEE8A9918F
:10125C00B8810D9300E00D932197A993B883AF91BA
:10126C00BF91CF91DF91DF93CF93BF93AF9306E7FD
:10127C00D5E1CEE8A991B8810D9300E00D932197AB
:10128C00A993B883AF91BF91CF91DF91DF93CF93A7
:10129C00BF93AF9305E6D5E1CEE8A991B8810D9344
:1012AC0000E00D932197A993B883AF91BF91CF9193
:1012BC00DF91DF93CF93BF93AF9300E2D5E1CEE8FC
:1012CC00A991B8810D9300E00D932197A993B88350
:1012DC00AF91BF91CF91DF91DF93CF93BF93AF933A
:1012EC0006E6D5E1CEE8A991B8810D9300E00D9307
:1012FC002197A993B883AF91BF91CF91DF91DF93E1
:10130C00CF93BF93AF930FE6D5E1CEE8A991B88107
:10131C000D9300E00D932197A993B883AF91BF91E2
:10132C00CF91DF91DF93CF93BF93AF930FE6D5E1CE
:10133C00CEE8A991B8810D9300E00D932197A99364
:10134C00B883AF91BF91CF91DF91DF93CF93BF93D0
:10135C00AF9304E6D5E1CEE8A991B8810D9300E0F6
:10136C000D932197A993B883AF91BF91CF91DF9142
:10137C00D5FF34966491DF93CF93BF93AF930FE86F
:10138C00D5E1CEE8A991B8810D9301E00D93219799
:10139C00A993B883AF91BF91CF91DF91DF93CF9396
:1013AC00BF93AF93062FD5E1CEE8A991B8810D93E9
:1013BC0000E00D932197A993B883AF91BF91CF9182
:1013CC00DF91D5FF3497DF93CF93BF93AF930FEC9F
:1013DC00D5E1CEE8A991B8810D9301E00D93219749
:1013EC00A993B883AF91BF91CF91DF91DF93CF9346
:1013FC00BF93AF9303E4D5E1CEE8A991B8810D93E7
:10140C0000E00D932197A993B883AF91BF91CF9131
:10141C00DF9174E67E1B705AE72F70E2D7274ECE11
:10142C0001BB1FD0169A1DD016981BD0089501BB76
:10143C00179A17D0169A15D0169813D01798089596
:10144C000F93002700BB01BB159A0BD0169A09D03D
:10145C000FB1169807FDF9CF15980FEF00BB0F9140
:10146C0008958F939F939FE08CE90197F1F79F91DB
:10147C008F910895F6DFF5DFF4DFF3DFF2DF0895E7
:00000001FF
