:020000020000FC
:040000000C9430002C
:04003C000C945E00C2
:10005C000C94CA0001E20EBF0FEF0DBF002704BDC8
:10006C0002E005BD01E000936E000FEF00BB01B98B
:10007C00002701BB02B900270AB90FEF0BB90FEF2C
:10008C0007B903E008B900270093B00002E0009321
:10009C00B10001E00093700000EF00930A010FEF34
:1000AC0000930B0199277894D5E0F2E0E0E0FFCFC4
:1000BC009F938091080290910902019600E084368A
:1000CC00900709F05BC0DF93C8E0D2E000270993EA
:1000DC000883DF9180910A02839599B19F3F09F4BF
:1000EC003FC09E3FF1F09D3F09F046C000910C02CD
:1000FC00000F016000930C0200910B02000F0093A3
:10010C000B020E3F09F038C00D2F0C71003019F0A6
:10011C00083009F002C0DC6101C0DC6901E002B901
:10012C002BC000910C02000F00930C0290910B025B
:10013C00990F916090930B020E3FF1F40D2F0C71FF
:10014C000C3169F4D37E0D2F0078003011F4D86097
:10015C0002C0DF77D46002B10E7F02B90DC00CC0B3
:10016C0000910B02000F016000930B0200910C0236
:10017C00000F016000930C029F9118958093080268
:10018C00909309029F9118950D2F0C710C3109F465
:10019C0018951FEE092F003021F0110F11600A95F0
:1001AC00FACF943019F4DF7B9927189510930B0133
:1001BC00000000000000109109011F701F3051F069
:1001CC0021E03327343031F0412F422329F033958D
:1001DC00220FF8CF939518951D2F1074103009F03D
:1001EC001895D0649330E1F03330C1F10D2F0C71C0
:1001FC00043009F402C0083191F4132F110F130FBE
:10020C00190F1F5F0D2F0871083141F4D37ED46094
:10021C0014302CF4DC7FD12BD8B901C018B94AC0EA
:10022C000D2F0C71083111F4D37ED460303051F0A5
:10023C00313071F00D2F0C71003051F4323049F027
:10024C00333059F00D2F0C71043011F4D37ED8617A
:10025C0031C0C634ECF7C25E2DC02CC00D2F0C7112
:10026C00083111F4D37ED46000E0903019F0913055
:10027C0091F089F40D2F0C71003039F0003151F0F0
:10028C000024C030B00509F003C0B3360CF4B395AC
:10029C00D37ED0600FC00D2F0C71043011F00030E4
:1002AC0031F0D8B9CC27BB27D37ED46003C0D37E22
:0602BC00D86000C0189597
:00000001FF
