:020000020000FC
:040000000C9430002C
:04003C000C945700C9
:10005C000C94B00001E20EBF0FEF0DBF002704BDE2
:10006C0002E005BD01E000936E000FEF00BB01B98B
:10007C00002701BB02B900270AB90FEF0BB90FEF2C
:10008C0007B903E008B900270093B00002E0009321
:10009C00B10001E0009370007894D5E0F2E0E0E06C
:1000AC00FFCF8091080290910902019600E08436FE
:1000BC00900709F04AC0DF93C8E0D2E0002709930B
:1000CC000883DF9180910A02839599B19F3F09F4CF
:1000DC002FC09E3FA9F09D3F09F036C000910C0245
:1000EC00000F016000930C0200910B02000F0093B3
:1000FC000B020E3F09F028C0DC6101E002B924C0FC
:10010C0000910C02000F00930C0290910B02990FBE
:10011C00916090930B020E3FB9F40D2F0C710C31C2
:10012C0031F4D37ED86002B10E7F02B90DC00CC081
:10013C0000910B02000F016000930B0200910C0266
:10014C00000F016000930C021895809308029093A5
:06015C0009021895189538
:00000001FF
