:020000020000FC
:040000000C9430002C
:04003C000C94AC0173
:040050000C94C9043F
:10005C000C94A002D5E001E20EBF0FEF0DBF0027FC
:10006C0004BD02E005BD01E000936E000FEF00BB84
:10007C0001B9002701BB02B90FEF04B9002705B97C
:10008C0000270AB90FEF0BB90FEF07B903E000EF28
:10009C0000930A010FEF00930B019927002700939F
:1000AC000D0208E30E94D4070E94E4070E94FE0799
:1000BC0008E30E94D4070E94E4070E94F50708E3B6
:1000CC000E94D4070E94E40708E30E94D4070E9410
:1000DC00E40708E00E94D4070E94E40701E00E94B4
:1000EC00D4070E94E40706E00E94D4070E94E407AC
:1000FC000EE00E94D4070E94E407B2E0AEE0A093A9
:10010C005E02B0935F02AA27BB2700270093B000C2
:10011C0002E00093B10001E000937000002700930F
:10012C00800002E00093810001E000936F00002743
:10013C000093600208E0009361027894002700931A
:10014C006202F2E0E0E0DF93CF93BF93AF9301E064
:10015C00D2E0CEE5A991B8810D9301E00D932197E2
:10016C00A993B883AF91BF91CF91DF91DF93CF93D8
:10017C00BF93AF9300E8D2E0CEE5A991B8810D937F
:10018C0001E00D932197A993B883AF91BF91CF91C3
:10019C00DF912F933F932B2F33272A3018F0339571
:1001AC002A50FBCF305DDF93CF93BF93AF93032FD8
:1001BC00D2E0CEE5A991B8810D9300E00D93219783
:1001CC00A993B883AF91BF91CF91DF913327205D75
:1001DC00DF93CF93BF93AF93022FD2E0CEE5A991DB
:1001EC00B8810D9300E00D932197A993B883AF913B
:1001FC00BF91CF91DF9122273F912F91DF93CF9326
:10020C00BF93AF930AE3D2E0CEE5A991B8810D93E9
:10021C0000E00D932197A993B883AF91BF91CF9133
:10022C00DF912F933F932A2F33272A3018F03395E1
:10023C002A50FBCF305DDF93CF93BF93AF93032F47
:10024C00D2E0CEE5A991B8810D9300E00D932197F2
:10025C00A993B883AF91BF91CF91DF913327205DE4
:10026C00DF93CF93BF93AF93022FD2E0CEE5A9914A
:10027C00B8810D9300E00D932197A993B883AF91AA
:10028C00BF91CF91DF9122273F912F91DF93CF9395
:10029C00BF93AF9300ECD2E0CEE5A991B8810D935A
:1002AC0001E00D932197A993B883AF91BF91CF91A2
:1002BC00DF91DF93CF93BF93AF9301E4D2E0CEE510
:1002CC00A991B8810D9300E00D932197A993B88360
:1002DC00AF91BF91CF91DF91DF93CF93BF93AF934A
:1002EC0001E3D2E0CEE5A991B8810D9300E00D9326
:1002FC002197A993B883AF91BF91CF91DF91DF93F1
:10030C00CF93BF93AF930FECD2E0CEE5A991B88118
:10031C000D9301E00D932197A993B883AF91BF91F1
:10032C00CF91DF91DF93CF93BF93AF9303E4D2E0F0
:10033C00CEE5A991B8810D9300E00D932197A99377
:10034C00B883AF91BF91CF91DF91FFCF9F938091F5
:10035C00080290910902019600E08431900709F09F
:10036C00E3C0DF93C8E0D2E0002709930883DF9154
:10037C0080910A02839500910D02003009F01DC096
:10038C00DF93CF93BF93AF93FF93EF93CEE0D2E085
:10039C00B2E0AEE5ED91FC91CE17DF07EF91FF9146
:1003AC00AF91BF91CF91DF9109F469C020910F02F9
:1003BC00223051F104E000930D0220910F02223003
:1003CC0019F1043039F410910E0211BB2130C1F037
:1003DC00179A16C0033011F4169A12C016980130F1
:1003EC0079F4039500930D0212E010930F0211277C
:1003FC0010BB11BB159A213009F441C017983FC0AE
:10040C000A9500930D023BC0023089F1013081F155
:10041C001FB1169817FD30C015981FEF10BBDF9356
:10042C00CF93BF93AF93FF93EF93CEE0D2E0B2E0C4
:10043C00AEE5ED91FC912296CE17DF0740F009F066
:10044C000FC02297C0935E02D0935F0209C0CE17F3
:10045C00DF0731F0A991B8812397A993B993EBCF1A
:10046C00EF91FF91AF91BF91CF91DF9108C0169A98
:10047C000A9500930D0203C002E000930D0299B19E
:10048C009F3F09F443C09E3FF9F09D3F09F04AC0DD
:10049C0000910B02000F016000930B0200910C0203
:1004AC00000F00930C020E3F09F03CC00D2F0C7195
:1004BC00003019F0083009F002C0DC6101C0DC69C1
:1004CC0001E002B99F913DC100910B02000F009316
:1004DC000B0290910C02990F916090930C020E3FBD
:1004EC0009F57F937D2F7C717C317F9171F4D37EE4
:1004FC000D2F0078003011F4D86002C0D37ED46088
:10050C0002B10E7F02B99F911CC10CC000910B026D
:10051C00000F016000930B0200910C02000F0160B0
:10052C0000930C029F9118958093080290930902F6
:10053C009F9118957F937D2F7C717C317F9109F071
:10054C0001C018951FEE092F003021F0110F11601A
:10055C000A95FACF943019F4DF7B992718951093EC
:10056C000B01000000000000109109011F701F30EA
:10057C0051F021E03327343031F0412F422329F060
:10058C003395220FF8CF939518951D2F10741030BA
:10059C0009F01895D064933099F1333009F46FC099
:1005AC007F937D2F7C7174307F9109F406C07F930B
:1005BC007D2F7C7178317F9111F5132F110F130F53
:1005CC00190F1F5F7F937D2F7C7178317F91B1F470
:1005DC00D37ED46014309CF4DC7FD12B113031F0FD
:1005EC00123041F00FE100936102ABC008E00093C0
:1005FC006102A7C000E100936102A3C087C0C2C121
:10060C007F937D2F7C7178317F9111F4D37ED460F0
:10061C007F937D2F7C7178307F9109F4B3C17F93E8
:10062C007D2F7C7170317F9109F4ACC1303061F059
:10063C00313091F07F937D2F7C7170307F9161F41C
:10064C00323059F0333081F07F937D2F7C717430D0
:10065C007F9111F4D37ED86174C0AE3118F0AE51D5
:10066C00B3956FC0A25E6DC0AE312CF4B03029F0E2
:10067C00BA95A25E66C0AE5164C0A0E07AC27F9308
:10068C007D2F7C7178317F9111F4D37ED46000E0A2
:10069C00903019F09130D9F019F57F937D2F7C7142
:1006AC0070307F9159F07F937D2F7C7170317F91E9
:1006BC0069F00024A030B00509F003C0B3360CF487
:1006CC00B395772770936002D37ED0605BC17F9324
:1006DC007D2F7C7174307F9109F054C1112716C0A5
:1006EC007F937D2F7C7174307F9131F07F937D2FC0
:1006FC007C7170307F9129F0AA27BB27D37ED46000
:10070C0020C0D37ED860002705B91BC018B97AE089
:10071C00A13014F4A10F15C0AA3034F4B13024F474
:10072C00A79FA02DA10F0DC0BA3008F02BC1B79F09
:10073C00B02DAA3018F0B395AA50FBCFA79FA02DCF
:10074C00A10FDF93CF93BF93AF9301E0D2E0CEE53F
:10075C00A991B8810D9301E00D932197A993B883CA
:10076C00AF91BF91CF91DF91DF93CF93BF93AF93B5
:10077C0000E8D2E0CEE5A991B8810D9301E00D938C
:10078C002197A993B883AF91BF91CF91DF912F930C
:10079C003F932B2F33272A3018F033952A50FBCF59
:1007AC00305DDF93CF93BF93AF93032FD2E0CEE5B1
:1007BC00A991B8810D9300E00D932197A993B8836B
:1007CC00AF91BF91CF91DF913327205DDF93CF9312
:1007DC00BF93AF93022FD2E0CEE5A991B8810D93D0
:1007EC0000E00D932197A993B883AF91BF91CF915E
:1007FC00DF9122273F912F91DF93CF93BF93AF933C
:10080C000AE3D2E0CEE5A991B8810D9300E00D93F7
:10081C002197A993B883AF91BF91CF91DF912F937B
:10082C003F932A2F33272A3018F033952A50FBCFC9
:10083C00305DDF93CF93BF93AF93032FD2E0CEE520
:10084C00A991B8810D9300E00D932197A993B883DA
:10085C00AF91BF91CF91DF913327205DDF93CF9381
:10086C00BF93AF93022FD2E0CEE5A991B8810D933F
:10087C0000E00D932197A993B883AF91BF91CF91CD
:10088C00DF9122273F912F917F937D2F7C717430C4
:10089C007F91C9F5DF93CF93BF93AF9300ECD2E078
:1008AC00CEE5A991B8810D9301E00D932197A99301
:1008BC00B883AF91BF91CF91DF91DF93CF93BF936B
:1008CC00AF9301E4D2E0CEE5A991B8810D9300E09D
:1008DC000D932197A993B883AF91BF91CF91DF91DD
:1008EC00DF93CF93BF93AF9301E3D2E0CEE5A99111
:1008FC00B8810D9300E00D932197A993B883AF9124
:10090C00BF91CF91DF91DF93CF93BF93AF930FEC58
:10091C00D2E0CEE5A991B8810D9301E00D9321971A
:10092C00A993B883AF91BF91CF91DF917F937D2F26
:10093C007C717C317F9199F0DF93CF93BF93AF9310
:10094C0003E4D2E0CEE5A991B8810D9300E00D93BC
:10095C002197A993B883AF91BF91CF91DF91DF938A
:10096C00CF93BF93AF930FE4D2E0CEE5A991B881BA
:10097C000D9300E00D932197A993B883AF91BF918C
:10098C00CF91DF9118957F937D2F7C7170307F9183
:10099C0019F0662765B9189560916002603009F00E
:1009AC00CBC07FEF75B9DF93CF93BF93AF9301E0CB
:1009BC00D2E0CEE5A991B8810D9301E00D9321977A
:1009CC00A993B883AF91BF91CF91DF91DF93CF9370
:1009DC00BF93AF9300E8D2E0CEE5A991B8810D9317
:1009EC0001E00D932197A993B883AF91BF91CF915B
:1009FC00DF912F933F932B2F33272A3018F0339509
:100A0C002A50FBCF305DDF93CF93BF93AF93032F6F
:100A1C00D2E0CEE5A991B8810D9300E00D9321971A
:100A2C00A993B883AF91BF91CF91DF913327205D0C
:100A3C00DF93CF93BF93AF93022FD2E0CEE5A99172
:100A4C00B8810D9300E00D932197A993B883AF91D2
:100A5C00BF91CF91DF9122273F912F91DF93CF93BD
:100A6C00BF93AF930AE3D2E0CEE5A991B8810D9381
:100A7C0000E00D932197A993B883AF91BF91CF91CB
:100A8C00DF912F933F932A2F33272A3018F0339579
:100A9C002A50FBCF305DDF93CF93BF93AF93032FDF
:100AAC00D2E0CEE5A991B8810D9300E00D9321978A
:100ABC00A993B883AF91BF91CF91DF913327205D7C
:100ACC00DF93CF93BF93AF93022FD2E0CEE5A991E2
:100ADC00B8810D9300E00D932197A993B883AF9142
:100AEC00BF91CF91DF9122273F912F91DF93CF932D
:100AFC00BF93AF930FECD2E0CEE5A991B8810D93E3
:100B0C0001E00D932197A993B883AF91BF91CF9139
:100B1C00DF91DF93CF93BF93AF9303E4D2E0CEE5A5
:100B2C00A991B8810D9300E00D932197A993B883F7
:100B3C00AF91BF91CF91DF916395109161026117D5
:100B4C0011F4112715B96E31C1F466277091620248
:100B5C007395753009F4772770936202A13011F404
:100B6C00B03039F0A03011F0AA950AC0BA95ABE3B9
:100B7C0007C0AA95D37ED061BAC060936002189565
:100B8C00DF93CF93BF93AF9300E8D2E0CEE5A9916A
:100B9C00B8810D9301E00D932197A993B883AF9180
:100BAC00BF91CF91DF912F933F932B2F33272A3077
:100BBC0018F033952A50FBCF305DDF93CF93BF9362
:100BCC00AF93032FD2E0CEE5A991B8810D9300E04D
:100BDC000D932197A993B883AF91BF91CF91DF91DA
:100BEC003327205DDF93CF93BF93AF93022FD2E0D7
:100BFC00CEE5A991B8810D9300E00D932197A993AF
:100C0C00B883AF91BF91CF91DF9122273F912F9164
:100C1C00DF93CF93BF93AF930AE3D2E0CEE5A991D4
:100C2C00B8810D9300E00D932197A993B883AF91F0
:100C3C00BF91CF91DF912F933F932A2F33272A30E7
:100C4C0018F033952A50FBCF305DDF93CF93BF93D1
:100C5C00AF93032FD2E0CEE5A991B8810D9300E0BC
:100C6C000D932197A993B883AF91BF91CF91DF9149
:100C7C003327205DDF93CF93BF93AF93022FD2E046
:100C8C00CEE5A991B8810D9300E00D932197A9931E
:100C9C00B883AF91BF91CF91DF9122273F912F91D4
:100CAC00DF93CF93BF93AF930FECD2E0CEE5A99136
:100CBC00B8810D9301E00D932197A993B883AF915F
:100CCC00BF91CF91DF91DF93CF93BF93AF9303E4A9
:100CDC00D2E0CEE5A991B8810D9300E00D93219758
:100CEC00A993B883AF91BF91CF91DF9146CFDF939A
:100CFC00CF93BF93AF9301E0D2E0CEE5A991B88139
:100D0C000D9301E00D932197A993B883AF91BF91F7
:100D1C00CF91DF91DF93CF93BF93AF9300E8D2E0F5
:100D2C00CEE5A991B8810D9301E00D932197A9937C
:100D3C00B883AF91BF91CF91DF91DF93CF93BF93E6
:100D4C00AF9304E4D2E0CEE5A991B8810D9300E015
:100D5C000D932197A993B883AF91BF91CF91DF9158
:100D6C00DF93CF93BF93AF930FE6D2E0CEE5A9917B
:100D7C00B8810D9300E00D932197A993B883AF919F
:100D8C00BF91CF91DF91DF93CF93BF93AF930EE6DB
:100D9C00D2E0CEE5A991B8810D9300E00D93219797
:100DAC00A993B883AF91BF91CF91DF91DF93CF938C
:100DBC00BF93AF9305E6D2E0CEE5A991B8810D9330
:100DCC0000E00D932197A993B883AF91BF91CF9178
:100DDC00DF91DF93CF93BF93AF9300ECD2E0CEE5DE
:100DEC00A991B8810D9301E00D932197A993B88334
:100DFC00AF91BF91CF91DF91DF93CF93BF93AF931F
:100E0C0002E5D2E0CEE5A991B8810D9300E00D93F7
:100E1C002197A993B883AF91BF91CF91DF91DF93C5
:100E2C00CF93BF93AF9305E6D2E0CEE5A991B881FD
:100E3C000D9300E00D932197A993B883AF91BF91C7
:100E4C00CF91DF91DF93CF93BF93AF930DE6D2E0B9
:100E5C00CEE5A991B8810D9300E00D932197A9934C
:100E6C00B883AF91BF91CF91DF91DF93CF93BF93B5
:100E7C00AF930FE6D2E0CEE5A991B8810D9300E0D7
:100E8C000D932197A993B883AF91BF91CF91DF9127
:100E9C00DF93CF93BF93AF9306E7D2E0CEE5A99152
:100EAC00B8810D9300E00D932197A993B883AF916E
:100EBC00BF91CF91DF91DF93CF93BF93AF9305E6B3
:100ECC00D2E0CEE5A991B8810D9300E00D93219766
:100EDC00A993B883AF91BF91CF91DF91DF93CF935B
:100EEC00BF93AF9300E2D2E0CEE5A991B8810D9308
:100EFC0000E00D932197A993B883AF91BF91CF9147
:100F0C00DF91DF93CF93BF93AF9306E6D2E0CEE5AC
:100F1C00A991B8810D9300E00D932197A993B88303
:100F2C00AF91BF91CF91DF91DF93CF93BF93AF93ED
:100F3C000FE6D2E0CEE5A991B8810D9300E00D93B8
:100F4C002197A993B883AF91BF91CF91DF91DF9394
:100F5C00CF93BF93AF930FE6D2E0CEE5A991B881C2
:100F6C000D9300E00D932197A993B883AF91BF9196
:100F7C00CF91DF91DF93CF93BF93AF9304E6D2E091
:100F8C00CEE5A991B8810D9300E00D932197A9931B
:100F9C00B883AF91BF91CF91DF9182CE01BB1FD0AF
:100FAC00169A1DD016981BD0089501BB179A17D00E
:100FBC00169A15D0169813D0179808950F930027EA
:100FCC0000BB01BB159A0BD0169A09D00FB116981D
:100FDC0007FDF9CF15980FEF00BB0F9108958F9374
:100FEC009F939FE08CE90197F1F79F918F91089562
:0C0FFC00F6DFF5DFF4DFF3DFF2DF08952D
:00000001FF
