:020000020000FC
:040000000C944C0010
:04003C000C94DD0142
:040050000C946D0798
:04005C000C94D1022D
:10008C000C94380A2D2F7C60607C2F2DD5E001E27A
:10009C000EBF0FEF0DBF002704BD02E005BD01E050
:1000AC0000936E000FEF00BB01B9002701BB02B932
:1000BC000FEF04B9002705B900270AB90FEF0BB9E8
:1000CC000FEF07B903E008B90FEF03BB002704BB20
:1000DC0000EF00930A010FEF00930B019927002703
:1000EC000093050208E30E944D0A0E945D0A0E94DB
:1000FC00770A08E30E944D0A0E945D0A0E946E0A6C
:10010C0008E30E944D0A0E945D0A08E30E944D0A12
:10011C000E945D0A08E00E944D0A0E945D0A01E0FF
:10012C000E944D0A0E945D0A06E00E944D0A0E9440
:10013C005D0A0EE00E944D0A0E945D0AB2E0A6E044
:10014C00A0938E15B0938F15AA27BB270027009379
:10015C00B00002E00093B10001E0009370000027B2
:10016C000093800002E00093810001E000936F0097
:10017C0000270093900003E00093910001E00093AE
:10018C00710000270093931500939415002700939A
:10019C0090150093921508E0009391157894002720
:1001AC0000939515F0E0E0E9DF93CF93BF93AF9305
:1001BC0001E0D5E1CEE8A991B8810D9301E00D9352
:1001CC002197A993B883AF91BF91CF91DF91DF9322
:1001DC00CF93BF93AF9300E8D5E1CEE8A991B88156
:1001EC000D9301E00D932197A993B883AF91BF9123
:1001FC00CF91DF912F933F932B2F33272A3018F079
:10020C0033952A50FBCF305DDF93CF93BF93AF93E1
:10021C00032FD5E1CEE8A991B8810D9300E00D93A1
:10022C002197A993B883AF91BF91CF91DF913327D9
:10023C00205DDF93CF93BF93AF93022FD5E1CEE830
:10024C00A991B8810D9300E00D932197A993B883E0
:10025C00AF91BF91CF91DF9122273F912F91DF93E7
:10026C00CF93BF93AF930AE3D5E1CEE8A991B881C0
:10027C000D9300E00D932197A993B883AF91BF9193
:10028C00CF91DF912F933F932A2F33272A3018F0E9
:10029C0033952A50FBCF305DDF93CF93BF93AF9351
:1002AC00032FD5E1CEE8A991B8810D9300E00D9311
:1002BC002197A993B883AF91BF91CF91DF91332749
:1002CC00205DDF93CF93BF93AF93022FD5E1CEE8A0
:1002DC00A991B8810D9300E00D932197A993B88350
:1002EC00AF91BF91CF91DF9122273F912F91DF9357
:1002FC00CF93BF93AF9300ECD5E1CEE8A991B88131
:10030C000D9301E00D932197A993B883AF91BF9101
:10031C00CF91DF91DF93CF93BF93AF9301E4D5E1FE
:10032C00CEE8A991B8810D9300E00D932197A99384
:10033C00B883AF91BF91CF91DF91DF93CF93BF93F0
:10034C00AF9301E3D5E1CEE8A991B8810D9300E01C
:10035C000D932197A993B883AF91BF91CF91DF9162
:10036C00DF93CF93BF93AF930FECD5E1CEE8A99178
:10037C00B8810D9301E00D932197A993B883AF91A8
:10038C00BF91CF91DF91DF93CF93BF93AF9303E4F2
:10039C00D5E1CEE8A991B8810D9300E00D9321979A
:1003AC00A993B883AF91BF91CF91DF91FFCF9F936A
:1003BC008091000290910102019600E08431900737
:1003CC0009F0E3C0DF93C0E0D2E000270993088373
:1003DC00DF9180910202839500910502003009F0B3
:1003EC001DC0DF93CF93BF93AF93FF93EF93C6E002
:1003FC00D2E0B5E1AEE8ED91FC91CE17DF07EF91BD
:10040C00FF91AF91BF91CF91DF9109F469C0209119
:10041C000702223051F104E00093050220910702FB
:10042C00223019F1043039F41091060211BB21303D
:10043C00C1F0179A16C0033011F4169A12C0169810
:10044C00013079F403950093050212E01093070232
:10045C00112710BB11BB159A213009F441C0179814
:10046C003FC00A95009305023BC0023089F1013070
:10047C0081F11FB1169817FD30C015981FEF10BBF6
:10048C00DF93CF93BF93AF93FF93EF93C6E0D2E08C
:10049C00B5E1AEE8ED91FC912296CE17DF0740F066
:1004AC0009F00FC02297C0938E15D0938F1509C0F9
:1004BC00CE17DF0731F0A991B8812397A993B9938F
:1004CC00EBCFEF91FF91AF91BF91CF91DF9108C02E
:1004DC00169A0A950093050203C002E000930502E8
:1004EC0099B19F3F09F443C09E3FF9F09D3F09F03D
:1004FC004AC000910302000F0160009303020091B7
:10050C000402000F009304020E3F09F03CC00D2FB3
:10051C000C71003019F0083009F002C0DC6101C028
:10052C00DC6901E002B99F9159C200910302000FEE
:10053C000093030290910402990F9160909304022E
:10054C000E3F09F57F937D2F7C717C317F9171F487
:10055C00D37E0D2F0078003011F4D86002C0D37E0A
:10056C00D46002B10E7F02B99F9138C20CC00091C9
:10057C000302000F01600093030200910402000FBC
:10058C000160009304029F91189580930002909350
:10059C0001029F9118957F937D2F7C717C317F9107
:1005AC0009F001C018951FEE092F003021F0110F32
:1005BC0011600A95FACF943019F4DF7B99271895BE
:1005CC0010930B01000000000000109109011F7036
:1005DC001F3051F021E03327343031F0412F4223CA
:1005EC0029F03395220FF8CF939518951FEF1093A0
:1005FC0094151127109393151D2F1074103009F0BA
:10060C001895D0649330C9F1333009F47AC07F93D4
:10061C007D2F7C7174307F9109F406C07F937D2F00
:10062C007C7178317F9141F5132F110F130F190F36
:10063C001F5F7F937D2F7C7178317F91E1F4D37EA6
:10064C00D4601430CCF4DC7FD12B113041F012305B
:10065C0061F00FE1009391150FEF08B9BFC108E0ED
:10066C000093911503E008B9B9C100E1009391150D
:10067C000FE008B9B3C198C1FEC37F937D2F7C7185
:10068C0078317F9111F4D37ED4607F937D2F7C7170
:10069C0078307F9109F4EFC37F937D2F7C7170319B
:1006AC007F9109F4E8C3303061F0313099F07F93D9
:1006BC007D2F7C7170307F9169F4323061F0333072
:1006CC00A9F07F937D2F7C7174307F9119F4D37EC8
:1006DC00D86184C1D0C3AE3138F0B33619F0AE5105
:1006EC00B3957CC1A3E67AC1A25E78C1AE312CF47D
:1006FC00B03029F0BA95A25E71C1AE516FC1A0E0C5
:10070C00F3C47F937D2F7C7178317F9111F4D37E6C
:10071C00D46000E0903071F1913009F049F47F938E
:10072C007D2F7C7174307F9109F0A5C311273CC1DA
:10073C007F937D2F7C7174307F9131F07F937D2F6F
:10074C007C7170307F9189F0AA27BB277F937D2F16
:10075C007C7178307F9131F474E97E1B7057E72FF0
:10076C0070E2D727D37ED46039C1D37ED8600027FE
:10077C0005B934C17F937D2F7C7170307F9161F00E
:10078C007F937D2F7C7170317F9129F00024A030F4
:10079C00B00511F006C06FC3B33614F4B39501C0A5
:1007AC00A3E67F937D2F7C7174307F9131F4772792
:1007BC00709390157EE470939515D37ED060DF9383
:1007CC00CF93BF93AF9301E0D5E1CEE8A991B88167
:1007DC000D9301E00D932197A993B883AF91BF912D
:1007EC00CF91DF91DF93CF93BF93AF930FECD5E114
:1007FC00CEE8A991B8810D9301E00D932197A993AF
:10080C00B883AF91BF91CF91DF91DF93CF93BF931B
:10081C00AF9303E4D5E1CEE8A991B8810D9300E044
:10082C000D932197A993B883AF91BF91CF91DF918D
:10083C00DF93CF93BF93AF9300E8D5E1CEE8A991B6
:10084C00B8810D9301E00D932197A993B883AF91D3
:10085C00BF91CF91DF912F933F932B2F33272A30CA
:10086C0018F033952A50FBCF305DDF93CF93BF93B5
:10087C00AF93032FD5E1CEE8A991B8810D9300E099
:10088C000D932197A993B883AF91BF91CF91DF912D
:10089C003327205DDF93CF93BF93AF93022FD5E126
:1008AC00CEE8A991B8810D9300E00D932197A993FF
:1008BC00B883AF91BF91CF91DF9122273F912F91B8
:1008CC00DF93CF93BF93AF930AE3D5E1CEE8A99121
:1008DC00B8810D9300E00D932197A993B883AF9144
:1008EC00BF91CF91DF912F933F932A2F33272A303B
:1008FC0018F033952A50FBCF305DDF93CF93BF9325
:10090C00AF93032FD5E1CEE8A991B8810D9300E008
:10091C000D932197A993B883AF91BF91CF91DF919C
:10092C003327205DDF93CF93BF93AF93022FD5E195
:10093C00CEE8A991B8810D9300E00D932197A9936E
:10094C00B883AF91BF91CF91DF9122273F912F9127
:10095C00D5FF34966491DF93CF93BF93AF930FE899
:10096C00D5E1CEE8A991B8810D9301E00D932197C3
:10097C00A993B883AF91BF91CF91DF91DF93CF93C0
:10098C00BF93AF93062FD5E1CEE8A991B8810D9313
:10099C0000E00D932197A993B883AF91BF91CF91AC
:1009AC00DF91D5FF349767C27AE0A13014F4A10F20
:1009BC0015C0AA3034F4B13024F4A79FA02DA10F98
:1009CC000DC0BA3008F057C2B79FB02DAA3018F03E
:1009DC00B395AA50FBCFA79FA02DA10FDF93CF9368
:1009EC00BF93AF9301E0D5E1CEE8A991B8810D9307
:1009FC0001E00D932197A993B883AF91BF91CF914B
:100A0C00DF91DF93CF93BF93AF9300E8D5E1CEE8AE
:100A1C00A991B8810D9301E00D932197A993B88307
:100A2C00AF91BF91CF91DF917F937D2F7C71783106
:100A3C007F9109F01EC1DF93CF93BF93AF9303E572
:100A4C00D5E1CEE8A991B8810D9300E00D932197E3
:100A5C00A993B883AF91BF91CF91DF91DF93CF93DF
:100A6C00BF93AF9305E6D5E1CEE8A991B8810D937C
:100A7C0000E00D932197A993B883AF91BF91CF91CB
:100A8C00DF91DF93CF93BF93AF9304E7D5E1CEE82B
:100A9C00A991B8810D9300E00D932197A993B88388
:100AAC00AF91BF91CF91DF91DF93CF93BF93AF9372
:100ABC0000E2D5E1CEE8A991B8810D9300E00D9349
:100ACC002197A993B883AF91BF91CF91DF91DF9319
:100ADC00CF93BF93AF9300E5D5E1CEE8A991B88150
:100AEC000D9300E00D932197A993B883AF91BF911B
:100AFC00CF91DF91DF93CF93BF93AF930FE6D5E107
:100B0C00CEE8A991B8810D9300E00D932197A9939C
:100B1C00B883AF91BF91CF91DF91DF93CF93BF9308
:100B2C00AF9307E7D5E1CEE8A991B8810D9300E02A
:100B3C000D932197A993B883AF91BF91CF91DF917A
:100B4C00DF93CF93BF93AF9305E6D5E1CEE8A991A0
:100B5C00B8810D9300E00D932197A993B883AF91C1
:100B6C00BF91CF91DF91DF93CF93BF93AF9302E708
:100B7C00D5E1CEE8A991B8810D9300E00D932197B2
:100B8C00A993B883AF91BF91CF91DF91DF93CF93AE
:100B9C00BF93AF9300E2D5E1CEE8A991B8810D9354
:100BAC0000E00D932197A993B883AF91BF91CF919A
:100BBC00DF91DF93CF93BF93AF9301E3D5E1CEE801
:100BCC00A991B8810D9300E00D932197A993B88357
:100BDC00AF91BF91CF91DF91DF93CF93BF93AF9341
:100BEC000FE2D5E1CEE8A991B8810D9300E00D9309
:100BFC002197A993B883AF91BF91CF91DF91DF93E8
:100C0C00CF93BF93AF9302E3D5E1CEE8A991B8811E
:100C1C000D9300E00D932197A993B883AF91BF91E9
:100C2C00CF91DF91DF93CF93BF93AF930FE2D5E1D9
:100C3C00CEE8A991B8810D9300E00D932197A9936B
:100C4C00B883AF91BF91CF91DF91DF93CF93BF93D7
:100C5C00AF9303E3D5E1CEE8A991B8810D9300E001
:100C6C000D932197A993B883AF91BF91CF91DF9149
:100C7C007DC02F933F932B2F33272A3018F03395B9
:100C8C002A50FBCF305DDF93CF93BF93AF93032FED
:100C9C00D5E1CEE8A991B8810D9300E00D93219791
:100CAC00A993B883AF91BF91CF91DF913327205D8A
:100CBC00DF93CF93BF93AF93022FD5E1CEE8A991E9
:100CCC00B8810D9300E00D932197A993B883AF9150
:100CDC00BF91CF91DF9122273F912F91DF93CF933B
:100CEC00BF93AF930AE3D5E1CEE8A991B8810D93F8
:100CFC0000E00D932197A993B883AF91BF91CF9149
:100D0C00DF912F933F932A2F33272A3018F03395F6
:100D1C002A50FBCF305DDF93CF93BF93AF93032F5C
:100D2C00D5E1CEE8A991B8810D9300E00D93219700
:100D3C00A993B883AF91BF91CF91DF913327205DF9
:100D4C00DF93CF93BF93AF93022FD5E1CEE8A99158
:100D5C00B8810D9300E00D932197A993B883AF91BF
:100D6C00BF91CF91DF9122273F912F917F937D2FC0
:100D7C007C7174307F9109F406C07F937D2F7C7158
:100D8C0078317F91C9F5DF93CF93BF93AF9300EC8C
:100D9C00D5E1CEE8A991B8810D9301E00D9321978F
:100DAC00A993B883AF91BF91CF91DF91DF93CF938C
:100DBC00BF93AF9301E4D5E1CEE8A991B8810D932F
:100DCC0000E00D932197A993B883AF91BF91CF9178
:100DDC00DF91DF93CF93BF93AF9301E3D5E1CEE8DF
:100DEC00A991B8810D9300E00D932197A993B88335
:100DFC00AF91BF91CF91DF91DF93CF93BF93AF931F
:100E0C000FECD5E1CEE8A991B8810D9301E00D93DB
:100E1C002197A993B883AF91BF91CF91DF917F9325
:100E2C007D2F7C717C317F9199F0DF93CF93BF93B1
:100E3C00AF9303E4D5E1CEE8A991B8810D9300E01E
:100E4C000D932197A993B883AF91BF91CF91DF9167
:100E5C00DF93CF93BF93AF930FE4D5E1CEE8A99185
:100E6C00B8810D9300E00D932197A993B883AF91AE
:100E7C00BF91CF91DF91D5FF34966491DF93CF93DF
:100E8C00BF93AF930FE8D5E1CEE8A991B8810D934C
:100E9C0001E00D932197A993B883AF91BF91CF91A6
:100EAC00DF91DF93CF93BF93AF93062FD5E1CEE8BD
:100EBC00A991B8810D9300E00D932197A993B88364
:100ECC00AF91BF91CF91DF91D5FF349718957F9358
:100EDC007D2F7C7170307F9101F1662765B97F930E
:100EEC007D2F7C7170317F9109F018956091901570
:100EFC006E3121F063956093901518956627609379
:100F0C00901560919215663039F063956093921547
:100F1C00772760FD7FEF74BB1895609195156E3443
:100F2C0009F033C060E0E439F60711F4E0E9F0E0D1
:100F3C00D5FF349664913196DF93CF93BF93AF93E3
:100F4C000FE8D5E1CEE8A991B8810D9301E00D939E
:100F5C002197A993B883AF91BF91CF91DF91DF9384
:100F6C00CF93BF93AF93062FD5E1CEE8A991B8816B
:100F7C000D9300E00D932197A993B883AF91BF9186
:100F8C00CF91DF91D5FF34976627639560939515C4
:100F9C0060919015603009F092C07FEF75B9DF93C6
:100FAC00CF93BF93AF9300E8D5E1CEE8A991B88178
:100FBC000D9301E00D932197A993B883AF91BF9145
:100FCC00CF91DF912F933F932B2F33272A3018F09B
:100FDC0033952A50FBCF305DDF93CF93BF93AF9304
:100FEC00032FD5E1CEE8A991B8810D9300E00D93C4
:100FFC002197A993B883AF91BF91CF91DF913327FC
:10100C00205DDF93CF93BF93AF93022FD5E1CEE852
:10101C00A991B8810D9300E00D932197A993B88302
:10102C00AF91BF91CF91DF9122273F912F91DF9309
:10103C00CF93BF93AF930AE3D5E1CEE8A991B881E2
:10104C000D9300E00D932197A993B883AF91BF91B5
:10105C00CF91DF912F933F932A2F33272A3018F00B
:10106C0033952A50FBCF305DDF93CF93BF93AF9373
:10107C00032FD5E1CEE8A991B8810D9300E00D9333
:10108C002197A993B883AF91BF91CF91DF9133276B
:10109C00205DDF93CF93BF93AF93022FD5E1CEE8C2
:1010AC00A991B8810D9300E00D932197A993B88372
:1010BC00AF91BF91CF91DF9122273F912F916395F3
:1010CC0010919115611711F4112715B96E31C1F4F6
:1010DC006627A13011F4B03039F0A03011F0AA9588
:1010EC0012C0BA95ABE30FC0772770939015739528
:1010FC00709392157FEF74BBAA95D37ED06104C018
:10110C00609390151895FCCFDF93CF93BF93AF935B
:10111C0001E0D5E1CEE8A991B8810D9301E00D93E2
:10112C002197A993B883AF91BF91CF91DF91DF93B2
:10113C00CF93BF93AF9300E8D5E1CEE8A991B881E6
:10114C000D9301E00D932197A993B883AF91BF91B3
:10115C00CF91DF91DF93CF93BF93AF9304E4D5E1AD
:10116C00CEE8A991B8810D9300E00D932197A99336
:10117C00B883AF91BF91CF91DF91DF93CF93BF93A2
:10118C00AF930FE6D5E1CEE8A991B8810D9300E0BD
:10119C000D932197A993B883AF91BF91CF91DF9114
:1011AC00DF93CF93BF93AF930EE6D5E1CEE8A99131
:1011BC00B8810D9300E00D932197A993B883AF915B
:1011CC00BF91CF91DF91DF93CF93BF93AF9305E6A0
:1011DC00D5E1CEE8A991B8810D9300E00D9321974C
:1011EC00A993B883AF91BF91CF91DF91DF93CF9348
:1011FC00BF93AF9300ECD5E1CEE8A991B8810D93E4
:10120C0001E00D932197A993B883AF91BF91CF9132
:10121C00DF91DF93CF93BF93AF9302E5D5E1CEE897
:10122C00A991B8810D9300E00D932197A993B883F0
:10123C00AF91BF91CF91DF91DF93CF93BF93AF93DA
:10124C0005E6D5E1CEE8A991B8810D9300E00D93A8
:10125C002197A993B883AF91BF91CF91DF91DF9381
:10126C00CF93BF93AF930DE6D5E1CEE8A991B881AA
:10127C000D9300E00D932197A993B883AF91BF9183
:10128C00CF91DF91DF93CF93BF93AF930FE6D5E16F
:10129C00CEE8A991B8810D9300E00D932197A99305
:1012AC00B883AF91BF91CF91DF91DF93CF93BF9371
:1012BC00AF9306E7D5E1CEE8A991B8810D9300E094
:1012CC000D932197A993B883AF91BF91CF91DF91E3
:1012DC00DF93CF93BF93AF9305E6D5E1CEE8A99109
:1012EC00B8810D9300E00D932197A993B883AF912A
:1012FC00BF91CF91DF91DF93CF93BF93AF9300E278
:10130C00D5E1CEE8A991B8810D9300E00D9321971A
:10131C00A993B883AF91BF91CF91DF91DF93CF9316
:10132C00BF93AF9306E6D5E1CEE8A991B8810D93B2
:10133C0000E00D932197A993B883AF91BF91CF9102
:10134C00DF91DF93CF93BF93AF930FE6D5E1CEE858
:10135C00A991B8810D9300E00D932197A993B883BF
:10136C00AF91BF91CF91DF91DF93CF93BF93AF93A9
:10137C000FE6D5E1CEE8A991B8810D9300E00D936D
:10138C002197A993B883AF91BF91CF91DF91DF9350
:10139C00CF93BF93AF9304E6D5E1CEE8A991B88182
:1013AC000D9300E00D932197A993B883AF91BF9152
:1013BC00CF91DF91D5FF34967491DF93CF93BF9388
:1013CC00AF930FE8D5E1CEE8A991B8810D9301E078
:1013DC000D932197A993B883AF91BF91CF91DF91D2
:1013EC00DF93CF93BF93AF93072FD5E1CEE8A991AD
:1013FC00B8810D9300E00D932197A993B883AF9119
:10140C00BF91CF91DF91D5FF3497DF93CF93BF93EB
:10141C00AF930FECD5E1CEE8A991B8810D9301E023
:10142C000D932197A993B883AF91BF91CF91DF9181
:10143C00DF93CF93BF93AF9303E4D5E1CEE8A991AB
:10144C00B8810D9300E00D932197A993B883AF91C8
:10145C00BF91CF91DF9174E97E1B7057E72F70E23B
:10146C00D7274ECE0091941500FF18950FEF04BBB3
:10147C0000919315023021F0039500939315189564
:10148C00112714BB1093941510939315189501BB49
:10149C001FD0169A1DD016981BD0089501BB179A11
:1014AC0017D0169A15D0169813D0179808950F9335
:1014BC00002700BB01BB159A0BD0169A09D00FB1AF
:1014CC00169807FDF9CF15980FEF00BB0F910895F3
:1014DC008F939F939FE08CE90197F1F79F918F91E8
:0E14EC000895F6DFF5DFF4DFF3DFF2DF089599
:00000001FF
