:020000020000FC
:040000000C9430002C
:04003C000C94C4005C
:040050000C94820288
:10005C000C94C601D5E001E20EBF0FEF0DBF0027D7
:10006C0004BD02E005BD01E000936E000FEF00BB84
:10007C0001B9002701BB02B90FEF04B9002705B97C
:10008C0000270AB90FEF0BB90FEF07B903E008B956
:10009C0000EF00930A010FEF00930B019927002743
:1000AC0000930E0208E345D254D26DD208E341D23C
:1000BC0050D260D208E33DD24CD208E33AD249D2B6
:1000CC0008E037D246D201E034D243D206E031D236
:1000DC0040D20EE02ED23DD201E432D23AD2B2E07E
:1000EC00A0E1A0936002B0936102DF93CF93BF9322
:1000FC00AF9304E5D0910200C0916000A991B88142
:10010C000D9300E00C93A993B883AF91BF91CF915D
:10011C00DF91DF93CF93BF93AF9308E4D0910200AC
:10012C00C0916000A991B8810D9300E00C93A99344
:10013C00B883AF91BF91CF91DF9100E701D209D283
:10014C0000270093B00002E00093B10001E000939F
:10015C00700000270093800002E00093810001E012
:10016C0000936F0000270093620208E00093630283
:10017C007894F2E0E0E0CC27BB27FFCF9F938091EF
:10018C00080290910902019601E0843F900709F062
:10019C00F1C0DF93C8E0D2E0002709930883DF9118
:1001AC0080910A02839500910E02003009F01EC066
:1001BC00DF93CF93BF93AF93FF93EF93C091100056
:1001CC00D0910200B0910200A0916000ED91FC91E1
:1001DC00CE17DF07EF91FF91AF91BF91CF91DF91D8
:1001EC0009F477C004E008B900930E0220911102C3
:1001FC00223069F1003009F46CC0043071F41091B4
:10020C0010020F93002708B9012F9AD1A2D111BB6C
:10021C000F912130C1F0179A16C0033011F4169AC1
:10022C0012C01698013079F4039500930E0222E067
:10023C0020930F02112710BB11BB159A213009F422
:10024C0048C0179846C00A9500930E0242C002306F
:10025C00B1F10130B1F11FB1169817FD37C01598E7
:10026C001FEF10BBDF93CF93BF93AF93FF93EF932D
:10027C00C0911000D0910200B0910200A0916000DA
:10028C00ED91FC912296CE17DF0740F009F010C0DB
:10029C002297C0936002D09361020AC0CE17DF0789
:1002AC0039F0A991B8812397A993B9932296F0CFED
:1002BC00EF91FF91AF91BF91CF91DF910AC0169A48
:1002CC0001C016980A9500930E0203C002E0009339
:1002DC000E0299B19F3F09F43FC09E3FF1F09D3F44
:1002EC0009F046C000910C02000F016000930C0253
:1002FC0000910B02000F00930B020E3F09F038C067
:10030C000D2F0C71003019F0083009F002C0DC61BF
:10031C0001C0DC6901E002B92BC000910C02000F96
:10032C0000930C0290910B02990F916090930B0229
:10033C000E3FF1F40D2F0C710C3169F4D37E0D2F9F
:10034C000078003011F4D86002C0DF77D46002B1BD
:10035C000E7F02B90DC00CC000910B02000F0160A2
:10036C0000930B0200910C02000F016000930C0231
:10037C009F91189580930802909309029F9118956C
:10038C000D2F0C710C3109F418951FEE092F00304C
:10039C0021F0110F11600A95FACF943019F4DF7B1C
:1003AC009927189510930B01000000000000109184
:1003BC0009011F701F3051F021E03327343031F028
:1003CC00412F422329F03395220FF8CF939518959E
:1003DC001D2F1074103009F01895D064933069F10A
:1003EC00333009F448C00D2F0C71043009F402C0ED
:1003FC00083111F5132F110F130F190F1F5F0D2F4C
:10040C0008710831C9F4D37ED4601430ACF4DC7FAD
:10041C00D12B002700936202113031F0123041F0E1
:10042C000FE10093630267C008E00093630263C0AE
:10043C0000E1009363025FC04BC00D2F0C710831BB
:10044C0011F4D37ED460303051F0313071F00D2F77
:10045C000C71003051F4323049F0333059F00D2F1B
:10046C000C71043011F4D37ED86145C0C634ECF75E
:10047C00C25E41C040C00D2F0C71083111F4D37E07
:10048C00D46000E0903019F0913091F089F40D2F88
:10049C000C71003039F0003151F00024C030B0053F
:1004AC0009F003C0B3360CF4B395D37ED06023C0EF
:1004BC000D2F0C71043011F0003029F0CC27BB2724
:1004CC00D37ED46018C0D37ED860002705B913C082
:1004DC00C13014F4C10F0FC0CA302CF42AE0C29FF3
:1004EC00C12FC00DC10FB1300CF4B10F2AE0B29F77
:1004FC00B12FB00DB10F18950D2F0C71003019F0F4
:10050C00002705B9189500916202003011F42FEF05
:10051C0025B90395109163021F31011711F41127AE
:10052C0015B90F3119F40FEF05B9002700936202CA
:10053C00189501BB1FD0169A1DD016981BD0089584
:10054C0001BB179A17D0169A15D0169813D0179876
:10055C0008950F93002700BB01BB159A0BD0169A78
:10056C0009D00FB1169807FDF9CF15980FEF00BB06
:10057C000F9108958F939F939FE08CE90197F1F76A
:10058C009F918F910895F6DFF5DFF4DFF3DFF2DF53
:02059C000895C0
:00000001FF
