:020000020000FC
:040000000C9430002C
:04003C000C945400CC
:10005C000C94A40001E20EBF0FEF0DBF002704BDEE
:10006C0002E005BD01E000936E000FEF00BB01B98B
:10007C00002701BB02B900270AB90FEF0BB90FEF2C
:10008C0007B900270BB900270093B00002E00093DA
:10009C00B10001E0009370007894FFCF80910802CA
:1000AC0090910902019600E08436900709F041C056
:1000BC00C8E0D2E000270993088380910A02839557
:1000CC0099B19F3F09F42AC09E3F19F09D3FB1F0B2
:1000DC002FC000910C02000F016000930C020091E4
:1000EC000B02000F00930B020E3F09F021C00D2FE5
:1000FC001CE101230C3109F0DC611AC000910C02E7
:10010C00000F00930C0290910B02990F9160909349
:10011C000B020E3F69F4D37ED8600AC0000F016059
:10012C0000930B0200910C02000F016000930C0273
:0E013C00189580930802909309021895189563
:00000001FF
